:100000000C9446000C9458000C9458000C94580022
:100010000C9458000C9458000C9458000C94580000
:100020000C9458000C9458000C9458000C945800F0
:100030000C9458000C9458000C9458000C945800E0
:100040000C9458000C9458000C9458000C945800D0
:100050000C9458000C9458000C9458000C945800C0
:100060000C9458000C9458000C9458000C945800B0
:100070000C9458000C9458000C9458000C945800A0
:100080000C9458000C9458000C94580011241FBE76
:10009000CFEFD0E1DEBFCDBF21E0A0E0B1E001C0F5
:1000A0001D92A230B207E1F70E9471000C94D200B9
:1000B0000C94000040B32091000130910101220F07
:1000C000331F306E842F817090E0282B392B3093B2
:1000D00001012093000181E02115304F09F080E0FB
:1000E00008958FEF87BBC0E0D0E00AE010E016C0B3
:1000F000C436D10559F1CE01B8010E94AA0062951B
:100100007295707F7627607F7627962F982B98BB05
:1001100083EF91E00197F1F700C0000080B32091D8
:10012000000130910101220F331F306EE82FE17082
:10013000F0E02E2B3F2B309301012093000121157D
:10014000304FB1F62196C436D105A9F690E0C0E053
:10015000D0E0DDCF97FB072E16F4009407D077FD93
:1001600009D00E94BE0007FC05D03EF49095819511
:100170009F4F0895709561957F4F0895AA1BBB1BF3
:1001800051E107C0AA1FBB1FA617B70710F0A61B97
:10019000B70B881F991F5A95A9F780959095BC01B8
:0801A000CD010895F894FFCF92
:00000001FF
