S00C00006C6162322E73726563B7
S11300000C9446000C9458000C9458000C9458001E
S11300100C9458000C9458000C9458000C945800FC
S11300200C9458000C9458000C9458000C945800EC
S11300300C9458000C9458000C9458000C945800DC
S11300400C9458000C9458000C9458000C945800CC
S11300500C9458000C9458000C9458000C945800BC
S11300600C9458000C9458000C9458000C945800AC
S11300700C9458000C9458000C9458000C9458009C
S11300800C9458000C9458000C94580011241FBE72
S1130090CFEFD0E1DEBFCDBF21E0A0E0B1E001C0F1
S11300A01D92A132B207E1F70E945B010C94A801F2
S11300B00C9400000F931F93CF93DF93ACE1B1E056
S11300C0E0E1F1E0CFEF09E111E0DFE171E469E49F
S11300D059E94DE035E22FE993E08D9181110BC090
S11300E09083319681E0E531F807B9F7DF91CF913C
S11300F01F910F910895813091F0823091F08330F7
S113010091F0843091F0853091F08630A1F0873001
S1130110A1F0883071F0893091F0C083E2CF208360
S1130120E0CF3083DECF4083DCCF5083DACF6083EF
S1130130D8CF1083D6CF7083D4CFD083D2CF0083CF
S1130140D0CF482FE82FF0E099B3EE0FFF1FE05017
S1130150FF4F20813181220F331F306E892F90E0B1
S113016002C0959587954A95E2F781709927282BC7
S1130170392B3183208381E02115304F09F080E051
S11301800895AC019C01ADECBCEC0E949901FC010A
S1130190F695E795F695E795F695E7959F01220F75
S11301A0331FCF01880F991F880F991F880F991F3C
S11301B0820F931F9A01281B390B20931C019F0166
S11301C00E9499019695879596958795969587951A
S11301D09C01220F331F880F991F880F991F880FC6
S11301E0991F820F931FE81BF90BE0931D018FEFFA
S11301F080931E019A013695279536952795ABE78E
S1130200B4E10E949901FC01F695E7959F01ADECDC
S1130210BCEC0E949901969587959695879596953D
S11302208795BC01660F771F880F991F880F991F48
S1130230880F991F680F791FE61BF70BE0931F01C6
S11302409A01369527953695279536952795A5ECE9
S1130250B0E20E949901FC01F295E295EF70EF275C
S1130260FF70EF279F01ADECBCEC0E9499019695BD
S113027087959695879596958795AC01440F551F5C
S1130280880F991F880F991F880F991F480F591FAE
S1130290E41BF50B9E2FE0932001E0E2F1E08FEFE9
S11302A0911108C0808331E0ED31F30719F0929188
S11302B09923C1F308958FE087BB85E088BB8FEF56
S11302C08ABB31E022E093E084E018BA1BBA4FEF16
S11302D053ED60E3415050406040E1F700C000003E
S11302E038BB4FEF53ED60E3415050406040E1F7BD
S11302F000C0000028BB4FEF53ED60E34150504075
S11303006040E1F700C0000098BB4FEF53ED60E39D
S1130310415050406040E1F700C0000088BB4FEFFF
S113032053ED60E3415050406040E1F700C00000ED
S1130330CCCFA29FB001B39FC001A39F700D811DBC
S11303401124911DB29F700D811D1124911D0895DA
S1070350F894FFCF4B
S9030000FC
