:100000000C9446000C9458000C9458000C94580022
:100010000C9458000C9458000C9458000C94580000
:100020000C9458000C9458000C9458000C945800F0
:100030000C9458000C9458000C9458000C945800E0
:100040000C9458000C9458000C9458000C945800D0
:100050000C9458000C9458000C9458000C945800C0
:100060000C9458000C9458000C9458000C945800B0
:100070000C9458000C9458000C9458000C945800A0
:100080000C9458000C9458000C94580011241FBE76
:10009000CFEFD0E1DEBFCDBF21E0A0E0B1E001C0F5
:1000A0001D92A332B207E1F70E945D010C94B202E7
:1000B0000C9400000F931F93CF93DF93AEE1B1E058
:1000C000E2E1F1E0CFEF09E111E0DFE171E469E4A1
:1000D00059E94DE035E22FE993E08D9181110BC094
:1000E0009083319681E0E731F807B9F7DF91CF913E
:1000F0001F910F910895813091F0823091F08330FB
:1001000091F0843091F0853091F08630A1F0873005
:10011000A1F0883071F0893091F0C083E2CF208364
:10012000E0CF3083DECF4083DCCF5083DACF6083F3
:10013000D8CF1083D6CF7083D4CFD083D2CF0083D3
:10014000D0CF482FE82FF0E099B3EE0FFF1FE0501B
:10015000FF4F20813181220F331F306E892F90E0B5
:1001600002C0959587954A95E2F781709927282BCB
:10017000392B3183208381E02115304F09F080E055
:100180000895AC019C01ADECBCEC0E94A302FC0103
:10019000F695E795F695E795F695E7959F01220F79
:1001A000331FCF01880F991F880F991F880F991F40
:1001B000820F931F9A01281B390B20931E019F0168
:1001C0000E94A30296958795969587959695879513
:1001D0009C01220F331F880F991F880F991F880FCA
:1001E000991F820F931FE81BF90BE0931F018FEFFC
:1001F000809320019A013695279536952795ABE790
:10020000B4E10E94A302FC01F695E7959F01ADECD5
:10021000BCEC0E94A3029695879596958795969536
:100220008795BC01660F771F880F991F880F991F4C
:10023000880F991F680F791FE61BF70BE0932101C8
:100240009A01369527953695279536952795A5ECED
:10025000B0E20E94A302FC01F295E295EF70EF2755
:10026000FF70EF279F01ADECBCEC0E94A3029695B6
:1002700087959695879596958795AC01440F551F60
:10028000880F991F880F991F880F991F480F591FB2
:10029000E41BF50B8E2FE0932201E2E2F1E09FEFE9
:1002A00081508E3F48F0908331E0EF31F30721F029
:1002B000829181508E3FB8F70895CF93DF9300D09D
:1002C00000D000D0CDB7DEB78FEF87BB87E088BB0B
:1002D000712C1E821D8233243A9487E0282EDAC0C6
:1002E00049B380910E0190910F01880F991FBC01B5
:1002F000706E842F90E0AC01440F452F441F550BC6
:10030000CB01842B952B90930F0180930E018115C7
:10031000904F09F4DAC039B380910C0190910D012E
:10032000880F991F906E36FB002700F910E0802B94
:10033000912B90930D0180930C018115904F09F43E
:10034000D1C039B380910A0190910B01880F991F98
:10035000906E35FBEE24E0F8F12C8E299F299093C6
:100360000B0180930A018115904F09F4C2C039B383
:100370008091080190910901880F991F906E34FBBC
:10038000CC24C0F8D12C8C299D299093090180930D
:1003900008018115904F09F4B3C039B3809106016B
:1003A00090910701880F991F906E33FBAA24A0F843
:1003B000B12C8A299B29909307018093060181150E
:1003C000904F09F4A4C039B38091040190910501C4
:1003D000880F991F906E32FB882480F8912C882911
:1003E000992990930501809304018115904F09F498
:1003F00095C039B38091020190910301880F991F34
:10040000906E3695317039831A8229813A81822B18
:10041000932B90930301809302018115904F09F46F
:1004200084C039B38091000190910101880F991F18
:10043000906E31703B831C822B813C81822B932BED
:1004400090930101809300018115904F09F474C0CD
:1004500028BA3ABA2D813E812115344020F021E09E
:1004600030E03E832D838D819E810E94C10035E066
:10047000731691F1672C6294660C10EE6122472C82
:10048000512C73940E945A0068BAF201EE5EFE4F3E
:1004900080818BBB8FE39FE10197F1F700C00000E3
:1004A0001ABA3BBA88B3806E88BB89B380911001B9
:1004B00090911101880F991F906E90931101809374
:1004C00010018115904F09F00BCF2D813E812F5FD8
:1004D0003F4F3E832D83BCCF77247394412C512C06
:1004E000612CD0CF2D813E812E5F3F4F3E832D83E7
:1004F000AFCF2D813E812C5F3F4F3E832D83A8CF10
:100500002D813E81285F3F4F3E832D83A1CF2D81DA
:100510003E81205F3F4F3E832D839ACF2D813E81C8
:10052000205E3F4F3E832D8393CF2D813E81205C03
:100530003F4F3E832D838CCF2D813E8120583F4FEE
:100540003E832D8385CFA29FB001B39FC001A39F9F
:10055000700D811D1124911DB29F700D811D1124FC
:08056000911D0895F894FFCFEE
:00000001FF
